{
  "address": "0x835574875C1CB9003c1638E799f3d7c504808960",
  "abi": [
    {
      "inputs": [],
      "stateMutability": "nonpayable",
      "type": "constructor"
    },
    {
      "anonymous": false,
      "inputs": [
        {
          "indexed": true,
          "internalType": "uint256",
          "name": "duelId",
          "type": "uint256"
        },
        {
          "indexed": false,
          "internalType": "uint256",
          "name": "randomNumber",
          "type": "uint256"
        }
      ],
      "name": "BonusTriggered",
      "type": "event"
    },
    {
      "anonymous": false,
      "inputs": [
        {
          "indexed": true,
          "internalType": "uint256",
          "name": "duelId",
          "type": "uint256"
        }
      ],
      "name": "DuelCancelled",
      "type": "event"
    },
    {
      "anonymous": false,
      "inputs": [
        {
          "indexed": true,
          "internalType": "uint256",
          "name": "duelId",
          "type": "uint256"
        },
        {
          "indexed": true,
          "internalType": "address",
          "name": "creator",
          "type": "address"
        },
        {
          "indexed": false,
          "internalType": "enum DegenDuel.DuelType",
          "name": "duelType",
          "type": "uint8"
        },
        {
          "indexed": false,
          "internalType": "uint256",
          "name": "stakeAmount",
          "type": "uint256"
        },
        {
          "indexed": false,
          "internalType": "uint256",
          "name": "deadline",
          "type": "uint256"
        },
        {
          "indexed": false,
          "internalType": "bytes21",
          "name": "feedId",
          "type": "bytes21"
        },
        {
          "indexed": false,
          "internalType": "uint256",
          "name": "threshold",
          "type": "uint256"
        },
        {
          "indexed": false,
          "internalType": "bool",
          "name": "prediction",
          "type": "bool"
        }
      ],
      "name": "DuelCreated",
      "type": "event"
    },
    {
      "anonymous": false,
      "inputs": [
        {
          "indexed": true,
          "internalType": "uint256",
          "name": "duelId",
          "type": "uint256"
        }
      ],
      "name": "DuelExpired",
      "type": "event"
    },
    {
      "anonymous": false,
      "inputs": [
        {
          "indexed": true,
          "internalType": "uint256",
          "name": "duelId",
          "type": "uint256"
        },
        {
          "indexed": true,
          "internalType": "address",
          "name": "joiner",
          "type": "address"
        }
      ],
      "name": "DuelJoined",
      "type": "event"
    },
    {
      "anonymous": false,
      "inputs": [
        {
          "indexed": true,
          "internalType": "uint256",
          "name": "duelId",
          "type": "uint256"
        },
        {
          "indexed": true,
          "internalType": "address",
          "name": "winner",
          "type": "address"
        },
        {
          "indexed": false,
          "internalType": "uint256",
          "name": "payout",
          "type": "uint256"
        },
        {
          "indexed": false,
          "internalType": "uint256",
          "name": "settledValue",
          "type": "uint256"
        },
        {
          "indexed": false,
          "internalType": "bool",
          "name": "bonusApplied",
          "type": "bool"
        }
      ],
      "name": "DuelSettled",
      "type": "event"
    },
    {
      "anonymous": false,
      "inputs": [
        {
          "indexed": true,
          "internalType": "uint256",
          "name": "duelId",
          "type": "uint256"
        },
        {
          "indexed": false,
          "internalType": "bytes21",
          "name": "feedId",
          "type": "bytes21"
        },
        {
          "indexed": false,
          "internalType": "uint256",
          "name": "value",
          "type": "uint256"
        },
        {
          "indexed": false,
          "internalType": "int8",
          "name": "decimals",
          "type": "int8"
        },
        {
          "indexed": false,
          "internalType": "uint64",
          "name": "timestamp",
          "type": "uint64"
        }
      ],
      "name": "PriceRead",
      "type": "event"
    },
    {
      "inputs": [],
      "name": "BONUS_CHANCE",
      "outputs": [
        {
          "internalType": "uint256",
          "name": "",
          "type": "uint256"
        }
      ],
      "stateMutability": "view",
      "type": "function"
    },
    {
      "inputs": [],
      "name": "MAX_DURATION",
      "outputs": [
        {
          "internalType": "uint256",
          "name": "",
          "type": "uint256"
        }
      ],
      "stateMutability": "view",
      "type": "function"
    },
    {
      "inputs": [],
      "name": "MIN_STAKE",
      "outputs": [
        {
          "internalType": "uint256",
          "name": "",
          "type": "uint256"
        }
      ],
      "stateMutability": "view",
      "type": "function"
    },
    {
      "inputs": [],
      "name": "PROTOCOL_FEE_BPS",
      "outputs": [
        {
          "internalType": "uint256",
          "name": "",
          "type": "uint256"
        }
      ],
      "stateMutability": "view",
      "type": "function"
    },
    {
      "inputs": [
        {
          "internalType": "uint256",
          "name": "",
          "type": "uint256"
        }
      ],
      "name": "activeDuelIds",
      "outputs": [
        {
          "internalType": "uint256",
          "name": "",
          "type": "uint256"
        }
      ],
      "stateMutability": "view",
      "type": "function"
    },
    {
      "inputs": [
        {
          "internalType": "uint256",
          "name": "duelId",
          "type": "uint256"
        }
      ],
      "name": "cancelDuel",
      "outputs": [],
      "stateMutability": "nonpayable",
      "type": "function"
    },
    {
      "inputs": [
        {
          "internalType": "uint256",
          "name": "dataThreshold",
          "type": "uint256"
        },
        {
          "internalType": "uint256",
          "name": "deadline",
          "type": "uint256"
        },
        {
          "internalType": "bool",
          "name": "prediction",
          "type": "bool"
        }
      ],
      "name": "createDataDuel",
      "outputs": [
        {
          "internalType": "uint256",
          "name": "duelId",
          "type": "uint256"
        }
      ],
      "stateMutability": "payable",
      "type": "function"
    },
    {
      "inputs": [
        {
          "internalType": "bytes21",
          "name": "feedId",
          "type": "bytes21"
        },
        {
          "internalType": "uint256",
          "name": "priceThreshold",
          "type": "uint256"
        },
        {
          "internalType": "int8",
          "name": "priceDecimals",
          "type": "int8"
        },
        {
          "internalType": "uint256",
          "name": "deadline",
          "type": "uint256"
        },
        {
          "internalType": "bool",
          "name": "prediction",
          "type": "bool"
        }
      ],
      "name": "createPriceDuel",
      "outputs": [
        {
          "internalType": "uint256",
          "name": "duelId",
          "type": "uint256"
        }
      ],
      "stateMutability": "payable",
      "type": "function"
    },
    {
      "inputs": [
        {
          "internalType": "uint256",
          "name": "",
          "type": "uint256"
        }
      ],
      "name": "duels",
      "outputs": [
        {
          "internalType": "uint256",
          "name": "id",
          "type": "uint256"
        },
        {
          "internalType": "enum DegenDuel.DuelType",
          "name": "duelType",
          "type": "uint8"
        },
        {
          "internalType": "enum DegenDuel.DuelStatus",
          "name": "status",
          "type": "uint8"
        },
        {
          "internalType": "address",
          "name": "playerA",
          "type": "address"
        },
        {
          "internalType": "address",
          "name": "playerB",
          "type": "address"
        },
        {
          "internalType": "uint256",
          "name": "stakeAmount",
          "type": "uint256"
        },
        {
          "internalType": "uint256",
          "name": "deadline",
          "type": "uint256"
        },
        {
          "internalType": "bool",
          "name": "playerAPrediction",
          "type": "bool"
        },
        {
          "internalType": "address",
          "name": "winner",
          "type": "address"
        },
        {
          "internalType": "bytes21",
          "name": "feedId",
          "type": "bytes21"
        },
        {
          "internalType": "uint256",
          "name": "priceThreshold",
          "type": "uint256"
        },
        {
          "internalType": "int8",
          "name": "priceDecimals",
          "type": "int8"
        },
        {
          "internalType": "uint256",
          "name": "dataThreshold",
          "type": "uint256"
        },
        {
          "internalType": "uint256",
          "name": "settledValue",
          "type": "uint256"
        },
        {
          "internalType": "uint256",
          "name": "payout",
          "type": "uint256"
        },
        {
          "internalType": "bool",
          "name": "bonusApplied",
          "type": "bool"
        }
      ],
      "stateMutability": "view",
      "type": "function"
    },
    {
      "inputs": [
        {
          "internalType": "uint256",
          "name": "duelId",
          "type": "uint256"
        }
      ],
      "name": "expireDuel",
      "outputs": [],
      "stateMutability": "nonpayable",
      "type": "function"
    },
    {
      "inputs": [],
      "name": "getActiveDuels",
      "outputs": [
        {
          "components": [
            {
              "internalType": "uint256",
              "name": "id",
              "type": "uint256"
            },
            {
              "internalType": "enum DegenDuel.DuelType",
              "name": "duelType",
              "type": "uint8"
            },
            {
              "internalType": "enum DegenDuel.DuelStatus",
              "name": "status",
              "type": "uint8"
            },
            {
              "internalType": "address",
              "name": "playerA",
              "type": "address"
            },
            {
              "internalType": "address",
              "name": "playerB",
              "type": "address"
            },
            {
              "internalType": "uint256",
              "name": "stakeAmount",
              "type": "uint256"
            },
            {
              "internalType": "uint256",
              "name": "deadline",
              "type": "uint256"
            },
            {
              "internalType": "bool",
              "name": "playerAPrediction",
              "type": "bool"
            },
            {
              "internalType": "address",
              "name": "winner",
              "type": "address"
            },
            {
              "internalType": "bytes21",
              "name": "feedId",
              "type": "bytes21"
            },
            {
              "internalType": "uint256",
              "name": "priceThreshold",
              "type": "uint256"
            },
            {
              "internalType": "int8",
              "name": "priceDecimals",
              "type": "int8"
            },
            {
              "internalType": "uint256",
              "name": "dataThreshold",
              "type": "uint256"
            },
            {
              "internalType": "uint256",
              "name": "settledValue",
              "type": "uint256"
            },
            {
              "internalType": "uint256",
              "name": "payout",
              "type": "uint256"
            },
            {
              "internalType": "bool",
              "name": "bonusApplied",
              "type": "bool"
            }
          ],
          "internalType": "struct DegenDuel.Duel[]",
          "name": "",
          "type": "tuple[]"
        }
      ],
      "stateMutability": "view",
      "type": "function"
    },
    {
      "inputs": [
        {
          "internalType": "bytes21",
          "name": "feedId",
          "type": "bytes21"
        }
      ],
      "name": "getCurrentPrice",
      "outputs": [
        {
          "internalType": "uint256",
          "name": "value",
          "type": "uint256"
        },
        {
          "internalType": "int8",
          "name": "decimals",
          "type": "int8"
        },
        {
          "internalType": "uint64",
          "name": "timestamp",
          "type": "uint64"
        }
      ],
      "stateMutability": "view",
      "type": "function"
    },
    {
      "inputs": [
        {
          "internalType": "uint256",
          "name": "duelId",
          "type": "uint256"
        }
      ],
      "name": "getDuel",
      "outputs": [
        {
          "components": [
            {
              "internalType": "uint256",
              "name": "id",
              "type": "uint256"
            },
            {
              "internalType": "enum DegenDuel.DuelType",
              "name": "duelType",
              "type": "uint8"
            },
            {
              "internalType": "enum DegenDuel.DuelStatus",
              "name": "status",
              "type": "uint8"
            },
            {
              "internalType": "address",
              "name": "playerA",
              "type": "address"
            },
            {
              "internalType": "address",
              "name": "playerB",
              "type": "address"
            },
            {
              "internalType": "uint256",
              "name": "stakeAmount",
              "type": "uint256"
            },
            {
              "internalType": "uint256",
              "name": "deadline",
              "type": "uint256"
            },
            {
              "internalType": "bool",
              "name": "playerAPrediction",
              "type": "bool"
            },
            {
              "internalType": "address",
              "name": "winner",
              "type": "address"
            },
            {
              "internalType": "bytes21",
              "name": "feedId",
              "type": "bytes21"
            },
            {
              "internalType": "uint256",
              "name": "priceThreshold",
              "type": "uint256"
            },
            {
              "internalType": "int8",
              "name": "priceDecimals",
              "type": "int8"
            },
            {
              "internalType": "uint256",
              "name": "dataThreshold",
              "type": "uint256"
            },
            {
              "internalType": "uint256",
              "name": "settledValue",
              "type": "uint256"
            },
            {
              "internalType": "uint256",
              "name": "payout",
              "type": "uint256"
            },
            {
              "internalType": "bool",
              "name": "bonusApplied",
              "type": "bool"
            }
          ],
          "internalType": "struct DegenDuel.Duel",
          "name": "",
          "type": "tuple"
        }
      ],
      "stateMutability": "view",
      "type": "function"
    },
    {
      "inputs": [],
      "name": "getOpenDuels",
      "outputs": [
        {
          "components": [
            {
              "internalType": "uint256",
              "name": "id",
              "type": "uint256"
            },
            {
              "internalType": "enum DegenDuel.DuelType",
              "name": "duelType",
              "type": "uint8"
            },
            {
              "internalType": "enum DegenDuel.DuelStatus",
              "name": "status",
              "type": "uint8"
            },
            {
              "internalType": "address",
              "name": "playerA",
              "type": "address"
            },
            {
              "internalType": "address",
              "name": "playerB",
              "type": "address"
            },
            {
              "internalType": "uint256",
              "name": "stakeAmount",
              "type": "uint256"
            },
            {
              "internalType": "uint256",
              "name": "deadline",
              "type": "uint256"
            },
            {
              "internalType": "bool",
              "name": "playerAPrediction",
              "type": "bool"
            },
            {
              "internalType": "address",
              "name": "winner",
              "type": "address"
            },
            {
              "internalType": "bytes21",
              "name": "feedId",
              "type": "bytes21"
            },
            {
              "internalType": "uint256",
              "name": "priceThreshold",
              "type": "uint256"
            },
            {
              "internalType": "int8",
              "name": "priceDecimals",
              "type": "int8"
            },
            {
              "internalType": "uint256",
              "name": "dataThreshold",
              "type": "uint256"
            },
            {
              "internalType": "uint256",
              "name": "settledValue",
              "type": "uint256"
            },
            {
              "internalType": "uint256",
              "name": "payout",
              "type": "uint256"
            },
            {
              "internalType": "bool",
              "name": "bonusApplied",
              "type": "bool"
            }
          ],
          "internalType": "struct DegenDuel.Duel[]",
          "name": "",
          "type": "tuple[]"
        }
      ],
      "stateMutability": "view",
      "type": "function"
    },
    {
      "inputs": [
        {
          "internalType": "address",
          "name": "player",
          "type": "address"
        }
      ],
      "name": "getPlayerDuels",
      "outputs": [
        {
          "components": [
            {
              "internalType": "uint256",
              "name": "id",
              "type": "uint256"
            },
            {
              "internalType": "enum DegenDuel.DuelType",
              "name": "duelType",
              "type": "uint8"
            },
            {
              "internalType": "enum DegenDuel.DuelStatus",
              "name": "status",
              "type": "uint8"
            },
            {
              "internalType": "address",
              "name": "playerA",
              "type": "address"
            },
            {
              "internalType": "address",
              "name": "playerB",
              "type": "address"
            },
            {
              "internalType": "uint256",
              "name": "stakeAmount",
              "type": "uint256"
            },
            {
              "internalType": "uint256",
              "name": "deadline",
              "type": "uint256"
            },
            {
              "internalType": "bool",
              "name": "playerAPrediction",
              "type": "bool"
            },
            {
              "internalType": "address",
              "name": "winner",
              "type": "address"
            },
            {
              "internalType": "bytes21",
              "name": "feedId",
              "type": "bytes21"
            },
            {
              "internalType": "uint256",
              "name": "priceThreshold",
              "type": "uint256"
            },
            {
              "internalType": "int8",
              "name": "priceDecimals",
              "type": "int8"
            },
            {
              "internalType": "uint256",
              "name": "dataThreshold",
              "type": "uint256"
            },
            {
              "internalType": "uint256",
              "name": "settledValue",
              "type": "uint256"
            },
            {
              "internalType": "uint256",
              "name": "payout",
              "type": "uint256"
            },
            {
              "internalType": "bool",
              "name": "bonusApplied",
              "type": "bool"
            }
          ],
          "internalType": "struct DegenDuel.Duel[]",
          "name": "",
          "type": "tuple[]"
        }
      ],
      "stateMutability": "view",
      "type": "function"
    },
    {
      "inputs": [
        {
          "internalType": "address",
          "name": "player",
          "type": "address"
        }
      ],
      "name": "getPlayerStats",
      "outputs": [
        {
          "internalType": "uint256",
          "name": "wins",
          "type": "uint256"
        },
        {
          "internalType": "uint256",
          "name": "earnings",
          "type": "uint256"
        }
      ],
      "stateMutability": "view",
      "type": "function"
    },
    {
      "inputs": [
        {
          "internalType": "bytes21[]",
          "name": "feedIds",
          "type": "bytes21[]"
        }
      ],
      "name": "getPrices",
      "outputs": [
        {
          "internalType": "uint256[]",
          "name": "values",
          "type": "uint256[]"
        },
        {
          "internalType": "int8[]",
          "name": "decimals",
          "type": "int8[]"
        },
        {
          "internalType": "uint64",
          "name": "timestamp",
          "type": "uint64"
        }
      ],
      "stateMutability": "view",
      "type": "function"
    },
    {
      "inputs": [],
      "name": "getProtocolStats",
      "outputs": [
        {
          "internalType": "uint256",
          "name": "created",
          "type": "uint256"
        },
        {
          "internalType": "uint256",
          "name": "settled",
          "type": "uint256"
        },
        {
          "internalType": "uint256",
          "name": "volume",
          "type": "uint256"
        },
        {
          "internalType": "uint256",
          "name": "fees",
          "type": "uint256"
        }
      ],
      "stateMutability": "view",
      "type": "function"
    },
    {
      "inputs": [],
      "name": "getRandomNumber",
      "outputs": [
        {
          "internalType": "uint256",
          "name": "randomNumber",
          "type": "uint256"
        },
        {
          "internalType": "bool",
          "name": "isSecure",
          "type": "bool"
        },
        {
          "internalType": "uint256",
          "name": "randomTimestamp",
          "type": "uint256"
        }
      ],
      "stateMutability": "view",
      "type": "function"
    },
    {
      "inputs": [
        {
          "internalType": "uint256",
          "name": "duelId",
          "type": "uint256"
        }
      ],
      "name": "joinDuel",
      "outputs": [],
      "stateMutability": "payable",
      "type": "function"
    },
    {
      "inputs": [],
      "name": "nextDuelId",
      "outputs": [
        {
          "internalType": "uint256",
          "name": "",
          "type": "uint256"
        }
      ],
      "stateMutability": "view",
      "type": "function"
    },
    {
      "inputs": [
        {
          "internalType": "uint256",
          "name": "",
          "type": "uint256"
        }
      ],
      "name": "openDuelIds",
      "outputs": [
        {
          "internalType": "uint256",
          "name": "",
          "type": "uint256"
        }
      ],
      "stateMutability": "view",
      "type": "function"
    },
    {
      "inputs": [],
      "name": "owner",
      "outputs": [
        {
          "internalType": "address",
          "name": "",
          "type": "address"
        }
      ],
      "stateMutability": "view",
      "type": "function"
    },
    {
      "inputs": [
        {
          "internalType": "address",
          "name": "",
          "type": "address"
        },
        {
          "internalType": "uint256",
          "name": "",
          "type": "uint256"
        }
      ],
      "name": "playerDuels",
      "outputs": [
        {
          "internalType": "uint256",
          "name": "",
          "type": "uint256"
        }
      ],
      "stateMutability": "view",
      "type": "function"
    },
    {
      "inputs": [
        {
          "internalType": "address",
          "name": "",
          "type": "address"
        }
      ],
      "name": "playerEarnings",
      "outputs": [
        {
          "internalType": "uint256",
          "name": "",
          "type": "uint256"
        }
      ],
      "stateMutability": "view",
      "type": "function"
    },
    {
      "inputs": [
        {
          "internalType": "address",
          "name": "",
          "type": "address"
        }
      ],
      "name": "playerWins",
      "outputs": [
        {
          "internalType": "uint256",
          "name": "",
          "type": "uint256"
        }
      ],
      "stateMutability": "view",
      "type": "function"
    },
    {
      "inputs": [],
      "name": "protocolFeePool",
      "outputs": [
        {
          "internalType": "uint256",
          "name": "",
          "type": "uint256"
        }
      ],
      "stateMutability": "view",
      "type": "function"
    },
    {
      "inputs": [
        {
          "internalType": "uint256",
          "name": "duelId",
          "type": "uint256"
        },
        {
          "components": [
            {
              "internalType": "bytes32[]",
              "name": "merkleProof",
              "type": "bytes32[]"
            },
            {
              "components": [
                {
                  "internalType": "bytes32",
                  "name": "attestationType",
                  "type": "bytes32"
                },
                {
                  "internalType": "bytes32",
                  "name": "sourceId",
                  "type": "bytes32"
                },
                {
                  "internalType": "uint64",
                  "name": "votingRound",
                  "type": "uint64"
                },
                {
                  "internalType": "uint64",
                  "name": "lowestUsedTimestamp",
                  "type": "uint64"
                },
                {
                  "components": [
                    {
                      "internalType": "string",
                      "name": "url",
                      "type": "string"
                    },
                    {
                      "internalType": "string",
                      "name": "httpMethod",
                      "type": "string"
                    },
                    {
                      "internalType": "string",
                      "name": "headers",
                      "type": "string"
                    },
                    {
                      "internalType": "string",
                      "name": "queryParams",
                      "type": "string"
                    },
                    {
                      "internalType": "string",
                      "name": "body",
                      "type": "string"
                    },
                    {
                      "internalType": "string",
                      "name": "postProcessJq",
                      "type": "string"
                    },
                    {
                      "internalType": "string",
                      "name": "abiSignature",
                      "type": "string"
                    }
                  ],
                  "internalType": "struct IWeb2Json.RequestBody",
                  "name": "requestBody",
                  "type": "tuple"
                },
                {
                  "components": [
                    {
                      "internalType": "bytes",
                      "name": "abiEncodedData",
                      "type": "bytes"
                    }
                  ],
                  "internalType": "struct IWeb2Json.ResponseBody",
                  "name": "responseBody",
                  "type": "tuple"
                }
              ],
              "internalType": "struct IWeb2Json.Response",
              "name": "data",
              "type": "tuple"
            }
          ],
          "internalType": "struct IWeb2Json.Proof",
          "name": "proof",
          "type": "tuple"
        }
      ],
      "name": "settleDataDuel",
      "outputs": [],
      "stateMutability": "nonpayable",
      "type": "function"
    },
    {
      "inputs": [
        {
          "internalType": "uint256",
          "name": "duelId",
          "type": "uint256"
        }
      ],
      "name": "settlePriceDuel",
      "outputs": [],
      "stateMutability": "nonpayable",
      "type": "function"
    },
    {
      "inputs": [],
      "name": "totalDuelsCreated",
      "outputs": [
        {
          "internalType": "uint256",
          "name": "",
          "type": "uint256"
        }
      ],
      "stateMutability": "view",
      "type": "function"
    },
    {
      "inputs": [],
      "name": "totalDuelsSettled",
      "outputs": [
        {
          "internalType": "uint256",
          "name": "",
          "type": "uint256"
        }
      ],
      "stateMutability": "view",
      "type": "function"
    },
    {
      "inputs": [],
      "name": "totalVolume",
      "outputs": [
        {
          "internalType": "uint256",
          "name": "",
          "type": "uint256"
        }
      ],
      "stateMutability": "view",
      "type": "function"
    },
    {
      "inputs": [],
      "name": "withdrawFees",
      "outputs": [],
      "stateMutability": "nonpayable",
      "type": "function"
    },
    {
      "stateMutability": "payable",
      "type": "receive"
    }
  ],
  "transactionHash": "0x22fdba9d807e21c4a365dfe13c47588f94f60f6b6d6638403c7af08a76cdc30b",
  "args": [],
  "numDeployments": 1,
  "solcInputHash": "82bb180a8646b0b0a192599aa2eaeaa3",
  "bytecode": "0x60a08060405234602957336080526128b8908161002f82396080518181816111210152611cec0152f35b600080fdfe608080604052600436101561001d575b50361561001b57600080fd5b005b60003560e01c90816292823b14611dbc575080630902a10814611d935780633ad38d8e14611d75578063476343ee14611cd95780634fd66eae14611c8d578063549ec61414611c6f578063565e614f14611b3c5780635f81a57c14611b1e57806368084e0e146119bc57806369f92773146119825780637409cdbd146117bd578063771aceef146117865780637f5637a9146115bb578063813b5db614611455578063859a62d01461133d5780638b31fb89146113035780638c58d6c0146112e55780638cc4b741146111505780638da5cb5b1461110b5780638fc5d90314610fbe578063a908f02114610ef8578063b1724b4614610eda578063be37822814610ebe578063cb1c2b5c14610e9c578063d2884ea714610e80578063d9c312f414610d79578063dbdff2c114610ce2578063e63f627214610a4e578063e8097b7e1461085b578063eb3323f114610709578063ed3f44dc146106bf578063f122093e146101d15763f7fbc66314610194573861000f565b346101cc5760203660031901126101cc576004356002548110156101cc576101bd602091611e08565b90549060031b1c604051908152f35b600080fd5b346101cc5760403660031901126101cc576024356001600160401b0381116101cc5780360360406003198201126101cc576004356000526001602052604060002090600182015460ff8160081c169060058210156106a957610237600160ff93146120d7565b1660028110156106a957600103610672576102586004830154421015612115565b604051602081019060208252600f60408201526e233231ab32b934b334b1b0ba34b7b760891b606082015260608152610292608082611fc6565b51902060405190630ac9aa5160e11b8252600482015260208160248173ad67fe66660fb8dfe9d6b1b4240d8650e30f60195afa90811561063757600091610643575b5060405190630aa05fe360e01b825260206004830152846004013560221984018112156101cc5785016024600482013591016001600160401b0382116101cc578160051b9182360382136101cc5760406024860152606485018190526001600160fb1b03106101cc578190608485013782019060248601359360c219018412156101cc578584019060231960848585030101604485015260048201356084840152602482013560a48401526001600160401b0361039360448401612343565b1660c48401526001600160401b036103ad60648401612343565b1660e48401526084820135600319833603019060de1982018112156101cc576004846104da92010160c06101048701526104c66104bb61049a6104796104586104376104128c6102246104008a80612357565b91909260e06101448201520191612388565b8c61042060208a018a612357565b610143198385030161016490930192909252612388565b6104446040880188612357565b610143198e8403016101848f015290612388565b6104656060870187612357565b610143198d8403016101a48e015290612388565b6104866080860186612357565b610143198c8403016101c48d015290612388565b6104a760a0850185612357565b610143198b8403016101e48c015290612388565b9160c0810190612357565b610143198884030161020489015290612388565b9260a481013591601e19018212156101cc57610522869460206105158198600489979688970101906101246083198287030191015280612357565b9190928181520191612388565b03916001600160a01b03165afa908115610637576000916105fd575b50156105c4576000920160a481013560221936839003018112156105c0576004910101803590601e19813603018212156105c057019081356001600160401b0381116105c057602083019281360384136105bc57602091810103126105b8576105b5913580600a83015560098201541115906124dc565b80f35b8280fd5b8480fd5b8380fd5b60405162461bcd60e51b815260206004820152601160248201527024b73b30b634b21023222190383937b7b360791b6044820152606490fd5b90506020813d60201161062f575b8161061860209383611fc6565b810103126101cc5761062990612301565b8461053e565b3d915061060b565b6040513d6000823e3d90fd5b610665915060203d60201161066b575b61065d8183611fc6565b8101906123a9565b846102d4565b503d610653565b60405162461bcd60e51b815260206004820152600f60248201526e139bdd08184819185d1848191d595b608a1b6044820152606490fd5b634e487b7160e01b600052602160045260246000fd5b346101cc5760403660031901126101cc576106d8611e3b565b6001600160a01b03166000908152600460205260409020805460243591908210156101cc576020916101bd91611e23565b346101cc5760203660031901126101cc5760043580600052600160205260406000206001810160ff815460081c1660058110156106a957600161074c91146120d7565b60048201546201518081018091116108455742111561080857805461ff00191661040017815561077b8361280c565b5460038201805490929160009182918291829160101c6001600160a01b03168282156107ff575bf11561063757600201549054600091829182918291906001600160a01b03168282156107f6575bf115610637577f82dca6171073e896c9a2e2206c0cf7d1499202cf0e22e05bc934dcdc5d54caae600080a2005b506108fc6107c9565b506108fc6107a2565b60405162461bcd60e51b815260206004820152601560248201527423b930b1b2903832b934b7b2103737ba1037bb32b960591b6044820152606490fd5b634e487b7160e01b600052601160045260246000fd5b60203660031901126101cc57600435806000526001602052604060002060018101805460ff8160081c1660058110156106a95761089890156122c5565b3360109190911c6001600160a01b031614610a12576003820191825434036109da5760048101544210156109a65760020180546001600160a01b03191633179055805461ff0019166101001790556108ef82612731565b600354600160401b811015610990578261091482600161092d94016003556003611e23565b90919082549060031b91821b91600019901b1916179055565b3360005260046020526109448260406000206122a2565b548060011b90808204600214901517156108455761096490600a54612220565b600a5533907f2be0d3826f37a8de3c1b301652c7dab4429fc3dfe5685e6ce0947666cb32401d600080a3005b634e487b7160e01b600052604160045260246000fd5b60405162461bcd60e51b815260206004820152600c60248201526b111d595b08195e1c1a5c995960a21b6044820152606490fd5b60405162461bcd60e51b815260206004820152601060248201526f4d757374206d61746368207374616b6560801b6044820152606490fd5b60405162461bcd60e51b815260206004820152601460248201527310d85b9b9bdd081a9bda5b881bdddb88191d595b60621b6044820152606490fd5b346101cc5760203660031901126101cc576004356001600160401b0381116101cc57366023820112156101cc578060040135906001600160401b0382116101cc573660248360051b830101116101cc57906001600160a01b03610aaf6123c8565b1690604051928391634c37574560e01b8352806024840160206004860152526024604484019201906000905b808210610cb25750505091818060009403915afa9081156106375760009081908293610b8f575b50604051916060830160608452815180915260206080850192019060005b818110610b795750505082810360208401526020808351928381520192019060005b818110610b60575050506001600160401b0382931660408301520390f35b825160000b845260209384019390920191600101610b42565b8251845260209384019390920191600101610b20565b919250503d8083833e610ba28183611fc6565b8101906060818303126105b85780516001600160401b0381116105c05781019282601f85011215610caf57835193610bd98561205c565b94610be76040519687611fc6565b80865260208087019160051b830101918583116105c057602001905b828210610c9f5750505060208201516001600160401b038111610c9b5782019280601f85011215610c9b57835191610c3a8361205c565b94610c486040519687611fc6565b83865260208087019460051b820101928311610c9b57602001925b828410610c8257505050506040610c7a9101612157565b919083610b02565b835180830b81036105b857815260209384019301610c63565b5080fd5b8151815260209182019101610c03565b80fd5b919350918335906001600160581b031982168092036101cc57602081600193829352019401920185939291610adb565b346101cc5760003660031901126101cc57600460606001600160a01b03610d076127d3565b166040519283809263dbdff2c160e01b82525afa90811561063757606091600091600090600092610d48575b50604051928352151560208301526040820152f35b915050610d6b9150823d8411610d72575b610d638183611fc6565b81019061230e565b9084610d33565b503d610d59565b346101cc5760203660031901126101cc57600435806000526001602052604060002060018101805460ff8160081c1660058110156106a957610dbb90156122c5565b60101c6001600160a01b03163303610e3b5760008080936003829461030061ff0019825416178155610dec88612731565b549101549060101c6001600160a01b0316828215610e32575bf115610637577fe6869595d58c61aa991d00acb41ac260a2d3b5a40d58255f6aad94a14c2804a7600080a2005b506108fc610e05565b60405162461bcd60e51b815260206004820152601760248201527f4f6e6c792063726561746f722063616e2063616e63656c0000000000000000006044820152606490fd5b346101cc5760003660031901126101cc576020604051600a8152f35b346101cc5760003660031901126101cc576020604051662386f26fc100008152f35b346101cc5760003660031901126101cc57602060405160648152f35b346101cc5760003660031901126101cc57602060405162093a808152f35b346101cc5760203660031901126101cc57610f11611f93565b60606001600160a01b03610f236123c8565b6040516349f4fc0360e11b81526001600160581b0319909416600485015283916024918391165afa9081156106375760609160009060008091610f82575b6001600160401b0392935060405193845260000b6020840152166040820152f35b505050610fac6001600160401b0391833d8511610fb7575b610fa48183611fc6565b81019061216b565b919250829190610f61565b503d610f9a565b60603660031901126101cc576024356044356004358115158083036101cc57610ff0662386f26fc10000341015612198565b610ffb4285116121d4565b62093a804201804211610845576110149085111561222d565b816009600054946110248661226c565b600090815586815260016020819052604090912087815580820180546001600160b01b0319163360101b62010000600160b01b0316179092179091559061108690346003840155886004840155600583019060ff801983541691151516179055565b01556110918361227b565b3360005260046020526110a88360406000206122a2565b6110b360085461226c565b60085560405191602094600184523486850152604084015260006060840152608083015260a0820152817fb320c7ddf7489cbe7ffa5dcf55b40f9a4a5603bbd4b903a38e148b37370f95c160c03393a3604051908152f35b346101cc5760003660031901126101cc576040517f00000000000000000000000000000000000000000000000000000000000000006001600160a01b03168152602090f35b60a03660031901126101cc57611164611f93565b602435604435918260000b83036101cc576064359260843592831515918285036101cc5761119b662386f26fc10000341015612198565b6111a64287116121d4565b62093a804201804211610845576111bf9087111561222d565b6008600054956111ce8761226c565b600090815587815260016020819052604090912088815590810180546001600160b01b0319163360101b62010000600160b01b03161790559061122c90346003840155896004840155600583019060ff801983541691151516179055565b600681018660581c6001600160581b0360a81b825416179055836007820155019060ff198254169060ff161790556112638461227b565b33600052600460205261127a8460406000206122a2565b61128560085461226c565b6008556040519260209560008552348786015260408501526001600160581b0319166060840152608083015260a0820152817fb320c7ddf7489cbe7ffa5dcf55b40f9a4a5603bbd4b903a38e148b37370f95c160c03393a3604051908152f35b346101cc5760003660031901126101cc576020600954604051908152f35b346101cc5760203660031901126101cc576001600160a01b03611324611e3b565b1660005260056020526020604060002054604051908152f35b346101cc5760203660031901126101cc576004356000526001602052610200604060002080549060018101549060018060a01b03600282015416600382015460048301546005840154600685015460581b600786015491600887015460000b93600988015495600a8901549760ff600c600b8c01549b0154169a6113e0604080519e8f9081526113d36020820160ff8616611e51565b0160ff8360081c16611e5e565b60018060a01b039060101c1660608d015260808c015260a08b015260c08a015260ff8116151560e08a015260018060a01b039060081c166101008901526001600160581b0319166101208801526101408701526101608601526101808501526101a08401526101c083015215156101e0820152f35b346101cc5760003660031901126101cc5760035461147281612073565b9060005b81811061148f576040518061148b8582611f4e565b0390f35b61149881611dd7565b90549060031b1c60005260016020526040600020906040516114b981611faa565b82548152600183015460ff811660028110156106a957602083015260ff8160081c1660058110156106a957604083015260101c6001600160a01b039081166060830152600284015481166080830152600384015460a0830152600484015460c0830152600584015460ff818116151560e0850152600891821c909216610100840152600685015460581b6001600160581b031916610120840152600785015461014084015284015460000b6101608301526009840154610180830152600a8401546101a0830152600b8401546101c0830152600c9093015490921615156101e08301526001916115a982866120c3565b526115b481856120c3565b5001611476565b346101cc5760203660031901126101cc576004358060005260016020526040600020600181015460ff8160081c169060058210156106a957611601600160ff93146120d7565b1660028110156106a95761174e578061162260046024930154421015612115565b6001600160a01b036116326123c8565b16906060600682015460581b604051948580926349f4fc0360e11b82526001600160581b031916958660048301525afa80156106375761001b94600093849285906116f1575b6116ce949596507fac39fb998ad2f116dd95803aee3846757c502771d55ac04dd2943850cfcddf37916001600160401b036080926040519283528960208401528660000b6040840152166060820152a283612478565b6116e46007830154600884015460000b90612478565b111591600a8201556124dc565b5091506116ce9293507fac39fb998ad2f116dd95803aee3846757c502771d55ac04dd2943850cfcddf37608061173d6001600160401b039760603d606011610fb757610fa48183611fc6565b919850889796509492509050611678565b60405162461bcd60e51b815260206004820152601060248201526f139bdd0818481c1c9a58d948191d595b60821b6044820152606490fd5b346101cc5760003660031901126101cc576080600854600954600a5460075491604051938452602084015260408301526060820152f35b346101cc5760203660031901126101cc576001600160a01b036117de611e3b565b16600052600460205260406000206040518082602082945493848152019060005260206000209260005b81811061196957505061181d92500382611fc6565b6118278151612073565b9060005b815181101561195b5761183e81836120c3565b51600052600160205260406000209060405161185981611faa565b82548152600183015460ff811660028110156106a957602083015260ff8160081c1660058110156106a957604083015260101c6001600160a01b039081166060830152600284015481166080830152600384015460a0830152600484015460c0830152600584015460ff818116151560e0850152600891821c909216610100840152600685015460581b6001600160581b031916610120840152600785015461014084015284015460000b6101608301526009840154610180830152600a8401546101a0830152600b8401546101c0830152600c9093015490921615156101e083015260019161194982866120c3565b5261195481856120c3565b500161182b565b6040518061148b8582611f4e565b8454835260019485019486945060209093019201611808565b346101cc5760203660031901126101cc576001600160a01b036119a3611e3b565b1660005260066020526020604060002054604051908152f35b346101cc5760003660031901126101cc576002546119d981612073565b9060005b8181106119f2576040518061148b8582611f4e565b6119fb81611e08565b90549060031b1c6000526001602052604060002090604051611a1c81611faa565b82548152600183015460ff811660028110156106a957602083015260ff8160081c1660058110156106a957604083015260101c6001600160a01b039081166060830152600284015481166080830152600384015460a0830152600484015460c0830152600584015460ff818116151560e0850152600891821c909216610100840152600685015460581b6001600160581b031916610120840152600785015461014084015284015460000b6101608301526009840154610180830152600a8401546101a0830152600b8401546101c0830152600c9093015490921615156101e0830152600191611b0c82866120c3565b52611b1781856120c3565b50016119dd565b346101cc5760003660031901126101cc576020600a54604051908152f35b346101cc5760203660031901126101cc57611b55611fe7565b5060043560005260016020526040600020604051611b7281611faa565b81548152600182015460ff811660028110156106a957602083015260ff8160081c1660058110156106a95760408381019190915260109190911c6001600160a01b039081166060840152600284015481166080840152600384015460a0840152600484015460c0840152600584015460ff818116151560e0860152600891821c909216610100850152600685015460581b6001600160581b031916610120850152600785015461014085015284015460000b6101608401526009840154610180840152600a8401546101a0840152600b8401546101c0840152600c9093015490921615156101e0820152905161020091611c6d908290611e6b565bf35b346101cc5760003660031901126101cc576020600054604051908152f35b346101cc5760203660031901126101cc5760406001600160a01b03611cb0611e3b565b168060005260056020528160002054906000526006602052816000205482519182526020820152f35b346101cc5760003660031901126101cc577f00000000000000000000000000000000000000000000000000000000000000006001600160a01b031633819003611d43576000808080936007549082600755828215611d3a575bf11561063757005b506108fc611d32565b60405162461bcd60e51b815260206004820152600a60248201526927b7363c9037bbb732b960b11b6044820152606490fd5b346101cc5760003660031901126101cc576020600754604051908152f35b346101cc5760203660031901126101cc576004356003548110156101cc576101bd602091611dd7565b346101cc5760003660031901126101cc576020906008548152f35b600354811015611df257600360005260206000200190600090565b634e487b7160e01b600052603260045260246000fd5b600254811015611df257600260005260206000200190600090565b8054821015611df25760005260206000200190600090565b600435906001600160a01b03821682036101cc57565b9060028210156106a95752565b9060058210156106a95752565b6101e0809180518452611e8660208201516020860190611e51565b611e9860408201516040860190611e5e565b60018060a01b03606082015116606085015260018060a01b03608082015116608085015260a081015160a085015260c081015160c085015260e0810151151560e085015260018060a01b03610100820151166101008501526001600160581b03196101208201511661012085015261014081015161014085015261016081015160000b6101608501526101808101516101808501526101a08101516101a08501526101c08101516101c085015201511515910152565b602060408183019282815284518094520192019060005b818110611f725750505090565b909192602061020082611f886001948851611e6b565b019401929101611f65565b600435906001600160581b0319821682036101cc57565b61020081019081106001600160401b0382111761099057604052565b90601f801991011681019081106001600160401b0382111761099057604052565b60405190611ff482611faa565b60006101e0838281528260208201528260408201528260608201528260808201528260a08201528260c08201528260e08201528261010082015282610120820152826101408201528261016082015282610180820152826101a0820152826101c08201520152565b6001600160401b0381116109905760051b60200190565b9061207d8261205c565b61208a6040519182611fc6565b828152809261209b601f199161205c565b019060005b8281106120ac57505050565b6020906120b7611fe7565b828285010152016120a0565b8051821015611df25760209160051b010190565b156120de57565b60405162461bcd60e51b815260206004820152600f60248201526e4475656c206e6f742061637469766560881b6044820152606490fd5b1561211c57565b60405162461bcd60e51b8152602060048201526013602482015272546f6f206561726c7920746f20736574746c6560681b6044820152606490fd5b51906001600160401b03821682036101cc57565b908160609103126101cc5780519160208201518060000b81036101cc576040612195919301612157565b90565b1561219f57565b60405162461bcd60e51b815260206004820152600d60248201526c5374616b6520746f6f206c6f7760981b6044820152606490fd5b156121db57565b60405162461bcd60e51b815260206004820152601e60248201527f446561646c696e65206d75737420626520696e207468652066757475726500006044820152606490fd5b9190820180921161084557565b1561223457565b60405162461bcd60e51b815260206004820152601060248201526f2232b0b23634b732903a37b7903330b960811b6044820152606490fd5b60001981146108455760010190565b60025490600160401b821015610990576109148260016122a094016002556002611e23565b565b90815491600160401b83101561099057826109149160016122a095018155611e23565b156122cc57565b60405162461bcd60e51b815260206004820152600d60248201526c223ab2b6103737ba1037b832b760991b6044820152606490fd5b519081151582036101cc57565b908160609103126101cc57805191604061232a60208401612301565b92015190565b8181029291811591840414171561084557565b35906001600160401b03821682036101cc57565b9035601e19823603018112156101cc5701602081359101916001600160401b0382116101cc5781360383136101cc57565b908060209392818452848401376000828201840152601f01601f1916010190565b908160209103126101cc57516001600160a01b03811681036101cc5790565b6040516020810190602082526006604082015265233a39b7ab1960d11b6060820152606081526123f9608082611fc6565b51902060405190630ac9aa5160e11b8252600482015260208160248173ad67fe66660fb8dfe9d6b1b4240d8650e30f60195afa90811561063757600091612448575b506001600160a01b031690565b612461915060203d60201161066b5761065d8183611fc6565b3861243b565b60ff16604d811161084557600a0a90565b90600090810b9081126124ac5760120390607f198212607f831317610845576124a66121959260ff16612467565b90612330565b607f1981146108455760000360000b60120190607f198212607f831317610845576124a66121959260ff16612467565b6005810180549092151560ff821615150361271d57600182015460101c6001600160a01b0316925b6003830154918260011b92808404600214901517156108455760648302838104606414841517156108455761271090048084038481116108455792600092600460606001600160a01b036125566127d3565b166040519283809263dbdff2c160e01b82525afa80869287926126f8575b50612699575b5050610100600160a81b031916600888901b610100600160a81b031617905560018501805461ff001916610200179055600b8501839055600c8501805483151560ff1660ff19919091161790556001600160a01b039590951694919250906125e490600754612220565b6007556125f260095461226c565b600955836000526005602052604060002061260d815461226c565b90558360005260066020526040600020612628838254612220565b9055612634835461280c565b60008285811561268f575b600092839283928392f115610637577f4188b822aed2fe2a908f2d8372c1bc7f62b375f20b97b99647cf7fde7a45b5d591606091600a8554950154604051928352602083015215156040820152a3565b6108fc925061263f565b806126eb575b6126aa575b8061257a565b945091506125e492916001947f7bbfdbec98dcfb32fd2467c180f1f6de7288b1f166016955d566586367e2ab2f6020895492604051908152a28594936126a4565b50600a606482061061269f565b909250612714915060603d606011610d7257610d638183611fc6565b50909138612574565b60028201546001600160a01b031692612504565b60005b600254808210156127ce578261274983611e08565b90549060031b1c1461275e5750600101612734565b6000198101925082116108455761091461277a61278793611e08565b90549060031b1c91611e08565b60025480156127b857600019016127b36127a2826002611e23565b8154906000199060031b1b19169055565b600255565b634e487b7160e01b600052603160045260246000fd5b505050565b604051602081019060208252600e60408201526d2930b73237b6a73ab6b132b92b1960911b6060820152606081526123f9608082611fc6565b60005b600354808210156127ce578261282483611dd7565b90549060031b1c14612839575060010161280f565b6000198101925082116108455761091461285561286293611dd7565b90549060031b1c91611dd7565b60035480156127b8576000190161287d6127a2826003611e23565b60035556fea2646970667358221220c41f8a659572b578b90df0eeb18a52c5c611f639e5d2adda8d13a57a6178fc2264736f6c634300081e0033",
  "devdoc": {
    "details": "Built for ETH Oxford 2026 hackathon on Coston2 testnet",
    "kind": "dev",
    "methods": {},
    "title": "DegenDuel",
    "version": 1
  },
  "userdoc": {
    "kind": "user",
    "methods": {
      "cancelDuel(uint256)": {
        "notice": "Cancel an open duel (creator only, before anyone joins)"
      },
      "createDataDuel(uint256,uint256,bool)": {
        "notice": "Create a data-based duel settled by FDC Web2Json proof"
      },
      "createPriceDuel(bytes21,uint256,int8,uint256,bool)": {
        "notice": "Create a price-based duel settled by FTSO"
      },
      "expireDuel(uint256)": {
        "notice": "Expire a duel that passed deadline + 24h without settlement"
      },
      "getActiveDuels()": {
        "notice": "Get all active duels"
      },
      "getCurrentPrice(bytes21)": {
        "notice": "Get current FTSO price for a feed (for UI display)"
      },
      "getDuel(uint256)": {
        "notice": "Get a single duel by ID"
      },
      "getOpenDuels()": {
        "notice": "Get all open duels"
      },
      "getPlayerDuels(address)": {
        "notice": "Get duels for a specific player"
      },
      "getPlayerStats(address)": {
        "notice": "Get player stats for leaderboard"
      },
      "getPrices(bytes21[])": {
        "notice": "Get multiple FTSO prices at once (for UI ticker)"
      },
      "getProtocolStats()": {
        "notice": "Get protocol stats"
      },
      "getRandomNumber()": {
        "notice": "Get a random number from Flare's Secure RNG"
      },
      "joinDuel(uint256)": {
        "notice": "Join an open duel (takes the opposite prediction)"
      },
      "settleDataDuel(uint256,(bytes32[],(bytes32,bytes32,uint64,uint64,(string,string,string,string,string,string,string),(bytes))))": {
        "notice": "Settle a data duel with a verified FDC Web2Json proof"
      },
      "settlePriceDuel(uint256)": {
        "notice": "Settle a price duel by reading current FTSO price"
      },
      "withdrawFees()": {
        "notice": "Withdraw accumulated protocol fees"
      }
    },
    "notice": "PvP prediction duel game using all 3 Flare protocols: FTSO + FDC + RNG",
    "version": 1
  },
  "storageLayout": {
    "storage": [
      {
        "astId": 8937,
        "contract": "contracts/DegenDuel.sol:DegenDuel",
        "label": "nextDuelId",
        "offset": 0,
        "slot": "0",
        "type": "t_uint256"
      },
      {
        "astId": 8942,
        "contract": "contracts/DegenDuel.sol:DegenDuel",
        "label": "duels",
        "offset": 0,
        "slot": "1",
        "type": "t_mapping(t_uint256,t_struct(Duel)8935_storage)"
      },
      {
        "astId": 8945,
        "contract": "contracts/DegenDuel.sol:DegenDuel",
        "label": "openDuelIds",
        "offset": 0,
        "slot": "2",
        "type": "t_array(t_uint256)dyn_storage"
      },
      {
        "astId": 8948,
        "contract": "contracts/DegenDuel.sol:DegenDuel",
        "label": "activeDuelIds",
        "offset": 0,
        "slot": "3",
        "type": "t_array(t_uint256)dyn_storage"
      },
      {
        "astId": 8953,
        "contract": "contracts/DegenDuel.sol:DegenDuel",
        "label": "playerDuels",
        "offset": 0,
        "slot": "4",
        "type": "t_mapping(t_address,t_array(t_uint256)dyn_storage)"
      },
      {
        "astId": 8957,
        "contract": "contracts/DegenDuel.sol:DegenDuel",
        "label": "playerWins",
        "offset": 0,
        "slot": "5",
        "type": "t_mapping(t_address,t_uint256)"
      },
      {
        "astId": 8961,
        "contract": "contracts/DegenDuel.sol:DegenDuel",
        "label": "playerEarnings",
        "offset": 0,
        "slot": "6",
        "type": "t_mapping(t_address,t_uint256)"
      },
      {
        "astId": 8977,
        "contract": "contracts/DegenDuel.sol:DegenDuel",
        "label": "protocolFeePool",
        "offset": 0,
        "slot": "7",
        "type": "t_uint256"
      },
      {
        "astId": 8979,
        "contract": "contracts/DegenDuel.sol:DegenDuel",
        "label": "totalDuelsCreated",
        "offset": 0,
        "slot": "8",
        "type": "t_uint256"
      },
      {
        "astId": 8981,
        "contract": "contracts/DegenDuel.sol:DegenDuel",
        "label": "totalDuelsSettled",
        "offset": 0,
        "slot": "9",
        "type": "t_uint256"
      },
      {
        "astId": 8983,
        "contract": "contracts/DegenDuel.sol:DegenDuel",
        "label": "totalVolume",
        "offset": 0,
        "slot": "10",
        "type": "t_uint256"
      }
    ],
    "types": {
      "t_address": {
        "encoding": "inplace",
        "label": "address",
        "numberOfBytes": "20"
      },
      "t_array(t_uint256)dyn_storage": {
        "base": "t_uint256",
        "encoding": "dynamic_array",
        "label": "uint256[]",
        "numberOfBytes": "32"
      },
      "t_bool": {
        "encoding": "inplace",
        "label": "bool",
        "numberOfBytes": "1"
      },
      "t_bytes21": {
        "encoding": "inplace",
        "label": "bytes21",
        "numberOfBytes": "21"
      },
      "t_enum(DuelStatus)8900": {
        "encoding": "inplace",
        "label": "enum DegenDuel.DuelStatus",
        "numberOfBytes": "1"
      },
      "t_enum(DuelType)8894": {
        "encoding": "inplace",
        "label": "enum DegenDuel.DuelType",
        "numberOfBytes": "1"
      },
      "t_int8": {
        "encoding": "inplace",
        "label": "int8",
        "numberOfBytes": "1"
      },
      "t_mapping(t_address,t_array(t_uint256)dyn_storage)": {
        "encoding": "mapping",
        "key": "t_address",
        "label": "mapping(address => uint256[])",
        "numberOfBytes": "32",
        "value": "t_array(t_uint256)dyn_storage"
      },
      "t_mapping(t_address,t_uint256)": {
        "encoding": "mapping",
        "key": "t_address",
        "label": "mapping(address => uint256)",
        "numberOfBytes": "32",
        "value": "t_uint256"
      },
      "t_mapping(t_uint256,t_struct(Duel)8935_storage)": {
        "encoding": "mapping",
        "key": "t_uint256",
        "label": "mapping(uint256 => struct DegenDuel.Duel)",
        "numberOfBytes": "32",
        "value": "t_struct(Duel)8935_storage"
      },
      "t_struct(Duel)8935_storage": {
        "encoding": "inplace",
        "label": "struct DegenDuel.Duel",
        "members": [
          {
            "astId": 8902,
            "contract": "contracts/DegenDuel.sol:DegenDuel",
            "label": "id",
            "offset": 0,
            "slot": "0",
            "type": "t_uint256"
          },
          {
            "astId": 8905,
            "contract": "contracts/DegenDuel.sol:DegenDuel",
            "label": "duelType",
            "offset": 0,
            "slot": "1",
            "type": "t_enum(DuelType)8894"
          },
          {
            "astId": 8908,
            "contract": "contracts/DegenDuel.sol:DegenDuel",
            "label": "status",
            "offset": 1,
            "slot": "1",
            "type": "t_enum(DuelStatus)8900"
          },
          {
            "astId": 8910,
            "contract": "contracts/DegenDuel.sol:DegenDuel",
            "label": "playerA",
            "offset": 2,
            "slot": "1",
            "type": "t_address"
          },
          {
            "astId": 8912,
            "contract": "contracts/DegenDuel.sol:DegenDuel",
            "label": "playerB",
            "offset": 0,
            "slot": "2",
            "type": "t_address"
          },
          {
            "astId": 8914,
            "contract": "contracts/DegenDuel.sol:DegenDuel",
            "label": "stakeAmount",
            "offset": 0,
            "slot": "3",
            "type": "t_uint256"
          },
          {
            "astId": 8916,
            "contract": "contracts/DegenDuel.sol:DegenDuel",
            "label": "deadline",
            "offset": 0,
            "slot": "4",
            "type": "t_uint256"
          },
          {
            "astId": 8918,
            "contract": "contracts/DegenDuel.sol:DegenDuel",
            "label": "playerAPrediction",
            "offset": 0,
            "slot": "5",
            "type": "t_bool"
          },
          {
            "astId": 8920,
            "contract": "contracts/DegenDuel.sol:DegenDuel",
            "label": "winner",
            "offset": 1,
            "slot": "5",
            "type": "t_address"
          },
          {
            "astId": 8922,
            "contract": "contracts/DegenDuel.sol:DegenDuel",
            "label": "feedId",
            "offset": 0,
            "slot": "6",
            "type": "t_bytes21"
          },
          {
            "astId": 8924,
            "contract": "contracts/DegenDuel.sol:DegenDuel",
            "label": "priceThreshold",
            "offset": 0,
            "slot": "7",
            "type": "t_uint256"
          },
          {
            "astId": 8926,
            "contract": "contracts/DegenDuel.sol:DegenDuel",
            "label": "priceDecimals",
            "offset": 0,
            "slot": "8",
            "type": "t_int8"
          },
          {
            "astId": 8928,
            "contract": "contracts/DegenDuel.sol:DegenDuel",
            "label": "dataThreshold",
            "offset": 0,
            "slot": "9",
            "type": "t_uint256"
          },
          {
            "astId": 8930,
            "contract": "contracts/DegenDuel.sol:DegenDuel",
            "label": "settledValue",
            "offset": 0,
            "slot": "10",
            "type": "t_uint256"
          },
          {
            "astId": 8932,
            "contract": "contracts/DegenDuel.sol:DegenDuel",
            "label": "payout",
            "offset": 0,
            "slot": "11",
            "type": "t_uint256"
          },
          {
            "astId": 8934,
            "contract": "contracts/DegenDuel.sol:DegenDuel",
            "label": "bonusApplied",
            "offset": 0,
            "slot": "12",
            "type": "t_bool"
          }
        ],
        "numberOfBytes": "416"
      },
      "t_uint256": {
        "encoding": "inplace",
        "label": "uint256",
        "numberOfBytes": "32"
      }
    }
  }
}